{
    "contractName": "Account",
    "abi": [
        {
            "inputs": [
                {
                    "internalType": "bytes15",
                    "name": "_bankAccount",
                    "type": "bytes15"
                }
            ],
            "stateMutability": "nonpayable",
            "type": "constructor"
        },
        {
            "inputs": [],
            "name": "getBalance",
            "outputs": [
                {
                    "internalType": "uint256",
                    "name": "",
                    "type": "uint256"
                }
            ],
            "stateMutability": "view",
            "type": "function"
        },
        {
            "inputs": [],
            "name": "getBankAccount",
            "outputs": [
                {
                    "internalType": "bytes32",
                    "name": "",
                    "type": "bytes32"
                }
            ],
            "stateMutability": "view",
            "type": "function"
        },
        {
            "inputs": [
                {
                    "internalType": "string",
                    "name": "_transactionHash",
                    "type": "string"
                }
            ],
            "name": "getReason",
            "outputs": [
                {
                    "internalType": "string",
                    "name": "",
                    "type": "string"
                }
            ],
            "stateMutability": "view",
            "type": "function"
        },
        {
            "inputs": [],
            "name": "getReceiverSenderBankAccount",
            "outputs": [
                {
                    "internalType": "bytes15",
                    "name": "",
                    "type": "bytes15"
                }
            ],
            "stateMutability": "view",
            "type": "function"
        },
        {
            "inputs": [
                {
                    "internalType": "uint256",
                    "name": "_amount",
                    "type": "uint256"
                }
            ],
            "name": "setBalance",
            "outputs": [],
            "stateMutability": "nonpayable",
            "type": "function"
        },
        {
            "inputs": [
                {
                    "internalType": "string",
                    "name": "_transactionrReason",
                    "type": "string"
                },
                {
                    "internalType": "string",
                    "name": "_transactionHash",
                    "type": "string"
                }
            ],
            "name": "setReason",
            "outputs": [],
            "stateMutability": "nonpayable",
            "type": "function"
        },
        {
            "inputs": [
                {
                    "internalType": "bytes15",
                    "name": "_receiverSenderBankAccount",
                    "type": "bytes15"
                }
            ],
            "name": "setReceiverSenderBankAccount",
            "outputs": [],
            "stateMutability": "nonpayable",
            "type": "function"
        }
    ],
    "bytecode": "608060405234801561001057600080fd5b5060405161058f38038061058f8339818101604052602081101561003357600080fd5b50516000805460889290921c6001600160781b031990921691909117905561052f806100606000396000f3fe608060405234801561001057600080fd5b506004361061007d5760003560e01c80638baa14f41161005b5780638baa14f4146101d3578063cc099e7b146102ee578063d8284f6314610315578063fb1669ca1461033a5761007d565b806312065fe01461008257806318e0747b1461009c57806319e4540b146101cb575b600080fd5b61008a610357565b60408051918252519081900360200190f35b6101c9600480360360408110156100b257600080fd5b8101906020810181356401000000008111156100cd57600080fd5b8201836020820111156100df57600080fd5b8035906020019184600183028401116401000000008311171561010157600080fd5b91908080601f016020809104026020016040519081016040528093929190818152602001838380828437600092019190915250929594936020810193503591505064010000000081111561015457600080fd5b82018360208201111561016657600080fd5b8035906020019184600183028401116401000000008311171561018857600080fd5b91908080601f01602080910402602001604051908101604052809392919081815260200183838082843760009201919091525092955061035d945050505050565b005b61008a610389565b610279600480360360208110156101e957600080fd5b81019060208101813564010000000081111561020457600080fd5b82018360208201111561021657600080fd5b8035906020019184600183028401116401000000008311171561023857600080fd5b91908080601f01602080910402602001604051908101604052809392919081815260200183838082843760009201919091525092955061039c945050505050565b6040805160208082528351818301528351919283929083019185019080838360005b838110156102b357818101518382015260200161029b565b50505050905090810190601f1680156102e05780820380516001836020036101000a031916815260200191505b509250505060405180910390f35b6101c96004803603602081101561030457600080fd5b50356001600160881b031916610434565b61031d610458565b604080516001600160881b03199092168252519081900360200190f35b6101c96004803603602081101561035057600080fd5b5035610461565b60015490565b8151610370906003906020850190610466565b508051610384906004906020840190610466565b505050565b60005460881b6001600160881b03191690565b60038054604080516020601f60026000196101006001881615020190951694909404938401819004810282018101909252828152606093909290918301828280156104285780601f106103fd57610100808354040283529160200191610428565b820191906000526020600020905b81548152906001019060200180831161040b57829003601f168201915b50505050509050919050565b600280546effffffffffffffffffffffffffffff191660889290921c919091179055565b60025460881b90565b600155565b828054600181600116156101000203166002900490600052602060002090601f016020900481019282601f106104a757805160ff19168380011785556104d4565b828001600101855582156104d4579182015b828111156104d45782518255916020019190600101906104b9565b506104e09291506104e4565b5090565b5b808211156104e057600081556001016104e556fea2646970667358221220020afac5b4a49ab0bbc550519e09fd0feaa68222202b6bf164c287fad3d6152c64736f6c63430007010033",
    "sourcePath": "/home/oyama/YIC Blockchain project/Account.sol",
    "compiler": {
        "name": "solc",
        "version": "0.7.1+commit.f4a555be"
    },
    "functionHashes": {
        "getBalance()": "12065fe0",
        "getBankAccount()": "19e4540b",
        "getReason(string)": "8baa14f4",
        "getReceiverSenderBankAccount()": "d8284f63",
        "setBalance(uint256)": "fb1669ca",
        "setReason(string,string)": "18e0747b",
        "setReceiverSenderBankAccount(bytes15)": "cc099e7b"
    },
    "gasEstimates": {
        "creation": {
            "codeDepositCost": "265400",
            "executionCost": "infinite",
            "totalCost": "infinite"
        },
        "external": {
            "getBalance()": "999",
            "getBankAccount()": "1070",
            "getReason(string)": "infinite",
            "getReceiverSenderBankAccount()": "1072",
            "setBalance(uint256)": "20255",
            "setReason(string,string)": "infinite",
            "setReceiverSenderBankAccount(bytes15)": "21074"
        }
    }
}