{
    "contractName": "AccountStore",
    "abi": [
        {
            "inputs": [],
            "stateMutability": "nonpayable",
            "type": "constructor"
        },
        {
            "inputs": [
                {
                    "internalType": "bytes32",
                    "name": "_bankAccountNumber",
                    "type": "bytes32"
                }
            ],
            "name": "CheckAccount",
            "outputs": [
                {
                    "internalType": "address",
                    "name": "",
                    "type": "address"
                }
            ],
            "stateMutability": "view",
            "type": "function"
        },
        {
            "inputs": [
                {
                    "internalType": "address",
                    "name": "_contractAddress",
                    "type": "address"
                },
                {
                    "internalType": "bytes32",
                    "name": "_bankAccountNumber",
                    "type": "bytes32"
                }
            ],
            "name": "addAccount",
            "outputs": [],
            "stateMutability": "nonpayable",
            "type": "function"
        },
        {
            "inputs": [
                {
                    "internalType": "uint256",
                    "name": "",
                    "type": "uint256"
                }
            ],
            "name": "storedAccounts",
            "outputs": [
                {
                    "internalType": "address",
                    "name": "contractAddress",
                    "type": "address"
                },
                {
                    "internalType": "bytes32",
                    "name": "bankAccountNumber",
                    "type": "bytes32"
                }
            ],
            "stateMutability": "view",
            "type": "function"
        }
    ],
    "bytecode": "6080604052600380546001600160a01b03191673111111111111111111111111111111111111111117905534801561003657600080fd5b50610263806100466000396000f3fe608060405234801561001057600080fd5b50600436106100415760003560e01c80635d8b7bb314610046578063f384b0f514610074578063fc7b5122146100ad575b600080fd5b6100726004803603604081101561005c57600080fd5b506001600160a01b0381351690602001356100ed565b005b6100916004803603602081101561008a57600080fd5b5035610178565b604080516001600160a01b039092168252519081900360200190f35b6100ca600480360360208110156100c357600080fd5b50356101f8565b604080516001600160a01b03909316835260208301919091528051918290030190f35b600080546001600160a01b03199081166001600160a01b03948516178083556001938455600280548086018255938190527f405787fa12a823e0f2b7631cc41b3ba8828b3321ca811111fa75cd3aa3bb5ace9302928301805491909516911617909255547f405787fa12a823e0f2b7631cc41b3ba8828b3321ca811111fa75cd3aa3bb5acf90910155565b6000805b6002548110156101e457826002828154811061019457fe5b90600052602060002090600202016001015414156101dc57600281815481106101b957fe5b60009182526020909120600290910201546001600160a01b031691506101f39050565b60010161017c565b50506003546001600160a01b03165b919050565b6002818154811061020557fe5b6000918252602090912060029091020180546001909101546001600160a01b0390911691508256fea264697066735822122088363529f1af17f74d4c6f5a151ccd703b84e7e79c966ac7969606a890d00f2964736f6c63430007010033",
    "sourcePath": "/home/oyama/YIC Blockchain project/MasterAccount.sol",
    "compiler": {
        "name": "solc",
        "version": "0.7.1+commit.f4a555be"
    },
    "functionHashes": {
        "CheckAccount(bytes32)": "f384b0f5",
        "addAccount(address,bytes32)": "5d8b7bb3",
        "storedAccounts(uint256)": "fc7b5122"
    },
    "gasEstimates": {
        "creation": {
            "codeDepositCost": "122200",
            "executionCost": "21007",
            "totalCost": "143207"
        },
        "external": {
            "CheckAccount(bytes32)": "infinite",
            "addAccount(address,bytes32)": "103564",
            "storedAccounts(uint256)": "2851"
        }
    }
}