{
    "contractName": "Account",
    "abi": [
        {
            "inputs": [
                {
                    "internalType": "bytes15",
                    "name": "_bankAccount",
                    "type": "bytes15"
                }
            ],
            "stateMutability": "nonpayable",
            "type": "constructor"
        },
        {
            "inputs": [],
            "name": "amount",
            "outputs": [
                {
                    "internalType": "uint256",
                    "name": "",
                    "type": "uint256"
                }
            ],
            "stateMutability": "view",
            "type": "function"
        },
        {
            "inputs": [],
            "name": "bankAccount",
            "outputs": [
                {
                    "internalType": "bytes15",
                    "name": "",
                    "type": "bytes15"
                }
            ],
            "stateMutability": "view",
            "type": "function"
        },
        {
            "inputs": [],
            "name": "bankOracle",
            "outputs": [
                {
                    "internalType": "address",
                    "name": "",
                    "type": "address"
                }
            ],
            "stateMutability": "view",
            "type": "function"
        },
        {
            "inputs": [],
            "name": "createTransactionStore",
            "outputs": [],
            "stateMutability": "nonpayable",
            "type": "function"
        },
        {
            "inputs": [],
            "name": "owner",
            "outputs": [
                {
                    "internalType": "address",
                    "name": "",
                    "type": "address"
                }
            ],
            "stateMutability": "view",
            "type": "function"
        },
        {
            "inputs": [],
            "name": "receiverSenderBankAccount",
            "outputs": [
                {
                    "internalType": "bytes15",
                    "name": "",
                    "type": "bytes15"
                }
            ],
            "stateMutability": "view",
            "type": "function"
        },
        {
            "inputs": [
                {
                    "internalType": "uint256",
                    "name": "_amount",
                    "type": "uint256"
                }
            ],
            "name": "setBalance",
            "outputs": [],
            "stateMutability": "nonpayable",
            "type": "function"
        },
        {
            "inputs": [
                {
                    "internalType": "bytes15",
                    "name": "_receiverSenderBankAccount",
                    "type": "bytes15"
                }
            ],
            "name": "setReceiverSenderBankAccount",
            "outputs": [],
            "stateMutability": "nonpayable",
            "type": "function"
        },
        {
            "inputs": [],
            "name": "transStore",
            "outputs": [
                {
                    "internalType": "contract TransactionStore",
                    "name": "",
                    "type": "address"
                }
            ],
            "stateMutability": "view",
            "type": "function"
        },
        {
            "inputs": [],
            "name": "transactionStoreAddress",
            "outputs": [
                {
                    "internalType": "address",
                    "name": "",
                    "type": "address"
                }
            ],
            "stateMutability": "view",
            "type": "function"
        }
    ],
    "bytecode": "60806040526006805460ff60a01b1916905534801561001d57600080fd5b506040516109a73803806109a78339818101604052602081101561004057600080fd5b5051600080546001600160781b03191660889290921c91909117815560038054336001600160a01b0319918216811790925560048054909116909117905561091990819061008e90396000f3fe608060405234801561001057600080fd5b506004361061009d5760003560e01c80638da5cb5b116100665780638da5cb5b14610105578063aa8c217c1461010d578063cc099e7b14610127578063e89645351461014e578063fb1669ca146101565761009d565b80625b9bf9146100a257806333439c9f146100ac578063377a0f53146100d057806362c31f4f146100f55780637339bedc146100fd575b600080fd5b6100aa610173565b005b6100b4610279565b604080516001600160a01b039092168252519081900360200190f35b6100d8610288565b604080516001600160881b03199092168252519081900360200190f35b6100d8610291565b6100b461029a565b6100b46102a9565b6101156102b8565b60408051918252519081900360200190f35b6100aa6004803603602081101561013d57600080fd5b50356001600160881b0319166102be565b6100b461032b565b6100aa6004803603602081101561016c57600080fd5b503561033a565b6003546001600160a01b031633146101d2576040805162461bcd60e51b815260206004820152601d60248201527f44656e6965643a2053656e646572206e6f7420617574686f72697a6564000000604482015290519081900360640190fd5b600654600160a01b900460ff16156101e957600080fd5b6003546040516001600160a01b0390911690309061020690610388565b6001600160a01b03928316815291166020820152604080519182900301906000f080158015610239573d6000803e3d6000fd5b50600580546001600160a01b039283166001600160a01b031991821617918290556006805460ff60a01b199216929093169190911716600160a01b179055565b6005546001600160a01b031681565b60005460881b81565b60025460881b81565b6006546001600160a01b031681565b6003546001600160a01b031681565b60015481565b6004546001600160a01b031633146103075760405162461bcd60e51b81526004018080602001828103825260408152602001806108a46040913960400191505060405180910390fd5b600280546effffffffffffffffffffffffffffff191660889290921c919091179055565b6004546001600160a01b031681565b6004546001600160a01b031633146103835760405162461bcd60e51b81526004018080602001828103825260408152602001806108a46040913960400191505060405180910390fd5b600155565b61050e806103968339019056fe608060405234801561001057600080fd5b5060405161050e38038061050e8339818101604052604081101561003357600080fd5b508051602090910151600080546001600160a01b039384166001600160a01b031991821617909155600180549390921692169190911790556104948061007a6000396000f3fe608060405234801561001057600080fd5b50600436106100575760003560e01c80630ac1c3131461005c57806318e0747b146100d95780634e89f8b5146102085780638da5cb5b1461022c578063b875ab2a14610234575b600080fd5b61006461023c565b6040805160208082528351818301528351919283929083019185019080838360005b8381101561009e578181015183820152602001610086565b50505050905090810190601f1680156100cb5780820380516001836020036101000a031916815260200191505b509250505060405180910390f35b610206600480360360408110156100ef57600080fd5b81019060208101813564010000000081111561010a57600080fd5b82018360208201111561011c57600080fd5b8035906020019184600183028401116401000000008311171561013e57600080fd5b91908080601f016020809104026020016040519081016040528093929190818152602001838380828437600092019190915250929594936020810193503591505064010000000081111561019157600080fd5b8201836020820111156101a357600080fd5b803590602001918460018302840111640100000000831117156101c557600080fd5b91908080601f0160208091040260200160405190810160405280939291908181526020018383808284376000920191909152509295506102ca945050505050565b005b610210610355565b604080516001600160a01b039092168252519081900360200190f35b610210610364565b610064610373565b6003805460408051602060026001851615610100026000190190941693909304601f810184900484028201840190925281815292918301828280156102c25780601f10610297576101008083540402835291602001916102c2565b820191906000526020600020905b8154815290600101906020018083116102a557829003601f168201915b505050505081565b6000546001600160a01b03163314610329576040805162461bcd60e51b815260206004820152601d60248201527f44656e6965643a2053656e646572206e6f7420617574686f72697a6564000000604482015290519081900360640190fd5b815161033c9060029060208501906103cb565b5080516103509060039060208401906103cb565b505050565b6001546001600160a01b031681565b6000546001600160a01b031681565b6002805460408051602060018416156101000260001901909316849004601f810184900484028201840190925281815292918301828280156102c25780601f10610297576101008083540402835291602001916102c2565b828054600181600116156101000203166002900490600052602060002090601f016020900481019282601f1061040c57805160ff1916838001178555610439565b82800160010185558215610439579182015b8281111561043957825182559160200191906001019061041e565b50610445929150610449565b5090565b5b80821115610445576000815560010161044a56fea26469706673582212209a8cf733ed89fa771c0ecd26f68481ae37fcea66bf8ce285b7cb35dae5a9a54564736f6c634300070100334163636573732064656e6965643a204f6e6c79207468652062616e6b206f7261636c652063616e20657865637574652074686973207472616e73616374696f6ea2646970667358221220996c4b80193d0b997070cfa3af9672f1f50bd00bf30eb460aedef43b8518a7c564736f6c63430007010033",
    "sourcePath": "/home/oyama/YIC Blockchain project/contracts/Account.sol",
    "compiler": {
        "name": "solc",
        "version": "0.7.1+commit.f4a555be"
    },
    "functionHashes": {
        "amount()": "aa8c217c",
        "bankAccount()": "377a0f53",
        "bankOracle()": "e8964535",
        "createTransactionStore()": "005b9bf9",
        "owner()": "8da5cb5b",
        "receiverSenderBankAccount()": "62c31f4f",
        "setBalance(uint256)": "fb1669ca",
        "setReceiverSenderBankAccount(bytes15)": "cc099e7b",
        "transStore()": "33439c9f",
        "transactionStoreAddress()": "7339bedc"
    },
    "gasEstimates": {
        "creation": {
            "codeDepositCost": "465800",
            "executionCost": "infinite",
            "totalCost": "infinite"
        },
        "external": {
            "amount()": "1020",
            "bankAccount()": "1073",
            "bankOracle()": "1103",
            "createTransactionStore()": "infinite",
            "owner()": "1037",
            "receiverSenderBankAccount()": "1095",
            "setBalance(uint256)": "infinite",
            "setReceiverSenderBankAccount(bytes15)": "infinite",
            "transStore()": "1060",
            "transactionStoreAddress()": "1126"
        }
    }
}