{
    "contractName": "Account",
    "abi": [
        {
            "inputs": [
                {
                    "internalType": "bytes15",
                    "name": "_bankAccount",
                    "type": "bytes15"
                }
            ],
            "stateMutability": "nonpayable",
            "type": "constructor"
        },
        {
            "anonymous": false,
            "inputs": [
                {
                    "indexed": false,
                    "internalType": "uint256",
                    "name": "transactionType",
                    "type": "uint256"
                },
                {
                    "indexed": false,
                    "internalType": "bytes15",
                    "name": "receiverSenderBankAccount",
                    "type": "bytes15"
                },
                {
                    "indexed": false,
                    "internalType": "uint256",
                    "name": "amount",
                    "type": "uint256"
                },
                {
                    "indexed": false,
                    "internalType": "uint256",
                    "name": "accountBalance",
                    "type": "uint256"
                },
                {
                    "indexed": false,
                    "internalType": "uint256",
                    "name": "timestamp",
                    "type": "uint256"
                }
            ],
            "name": "Transact",
            "type": "event"
        },
        {
            "inputs": [],
            "name": "PAID",
            "outputs": [
                {
                    "internalType": "uint8",
                    "name": "",
                    "type": "uint8"
                }
            ],
            "stateMutability": "view",
            "type": "function"
        },
        {
            "inputs": [],
            "name": "RECEIVED",
            "outputs": [
                {
                    "internalType": "uint8",
                    "name": "",
                    "type": "uint8"
                }
            ],
            "stateMutability": "view",
            "type": "function"
        },
        {
            "inputs": [],
            "name": "accountBalance",
            "outputs": [
                {
                    "internalType": "uint256",
                    "name": "",
                    "type": "uint256"
                }
            ],
            "stateMutability": "view",
            "type": "function"
        },
        {
            "inputs": [],
            "name": "amount",
            "outputs": [
                {
                    "internalType": "uint256",
                    "name": "",
                    "type": "uint256"
                }
            ],
            "stateMutability": "view",
            "type": "function"
        },
        {
            "inputs": [],
            "name": "bankAccount",
            "outputs": [
                {
                    "internalType": "bytes15",
                    "name": "",
                    "type": "bytes15"
                }
            ],
            "stateMutability": "view",
            "type": "function"
        },
        {
            "inputs": [],
            "name": "bankOracle",
            "outputs": [
                {
                    "internalType": "address",
                    "name": "",
                    "type": "address"
                }
            ],
            "stateMutability": "view",
            "type": "function"
        },
        {
            "inputs": [
                {
                    "internalType": "uint256",
                    "name": "newBalance",
                    "type": "uint256"
                },
                {
                    "internalType": "bytes15",
                    "name": "_receiverSenderBankAccount",
                    "type": "bytes15"
                }
            ],
            "name": "bankUpdate",
            "outputs": [],
            "stateMutability": "nonpayable",
            "type": "function"
        },
        {
            "inputs": [],
            "name": "createTransactionStore",
            "outputs": [],
            "stateMutability": "nonpayable",
            "type": "function"
        },
        {
            "inputs": [],
            "name": "owner",
            "outputs": [
                {
                    "internalType": "address",
                    "name": "",
                    "type": "address"
                }
            ],
            "stateMutability": "view",
            "type": "function"
        },
        {
            "inputs": [],
            "name": "receiverSenderBankAccount",
            "outputs": [
                {
                    "internalType": "bytes15",
                    "name": "",
                    "type": "bytes15"
                }
            ],
            "stateMutability": "view",
            "type": "function"
        },
        {
            "inputs": [],
            "name": "transStore",
            "outputs": [
                {
                    "internalType": "contract TransactionStore",
                    "name": "",
                    "type": "address"
                }
            ],
            "stateMutability": "view",
            "type": "function"
        },
        {
            "inputs": [],
            "name": "transactionStoreAddress",
            "outputs": [
                {
                    "internalType": "address",
                    "name": "",
                    "type": "address"
                }
            ],
            "stateMutability": "view",
            "type": "function"
        },
        {
            "inputs": [],
            "name": "transactionType",
            "outputs": [
                {
                    "internalType": "uint8",
                    "name": "",
                    "type": "uint8"
                }
            ],
            "stateMutability": "view",
            "type": "function"
        },
        {
            "inputs": [
                {
                    "internalType": "address",
                    "name": "_newBankOracle",
                    "type": "address"
                }
            ],
            "name": "updateOracle",
            "outputs": [],
            "stateMutability": "nonpayable",
            "type": "function"
        }
    ],
    "bytecode": "60806040526007805460ff60a01b1916905534801561001d57600080fd5b50604051610c55380380610c558339818101604052602081101561004057600080fd5b50516000805460889290921c6001600160781b0319909216919091179055600480546001600160a01b03199081163317909155600580549091167338de5fc74021673cf5ac555bf704c56d56c6e8621790556064600255610baf806100a66000396000f3fe608060405234801561001057600080fd5b50600436106100e95760003560e01c80637cd47d931161008c578063aa8c217c11610066578063aa8c217c146101d2578063b0a1c1c4146101ec578063d31a03c2146101f4578063e8964535146101fc576100e9565b80637cd47d93146101955780638da5cb5b1461019d578063a31af2c6146101a5576100e9565b806333439c9f116100c857806333439c9f1461013c578063377a0f531461016057806362c31f4f146101855780637339bedc1461018d576100e9565b80625b9bf9146100ee5780631cb44dfc146100f85780632ba89ea91461011e575b600080fd5b6100f6610204565b005b6100f66004803603602081101561010e57600080fd5b50356001600160a01b031661030a565b610126610375565b6040805160ff9092168252519081900360200190f35b61014461037a565b604080516001600160a01b039092168252519081900360200190f35b610168610389565b604080516001600160881b03199092168252519081900360200190f35b610168610392565b61014461039b565b6101266103aa565b6101446103ba565b6100f6600480360360408110156101bb57600080fd5b50803590602001356001600160881b0319166103c9565b6101da6104e1565b60408051918252519081900360200190f35b6101da6104e7565b6101266104ed565b6101446104f2565b6004546001600160a01b03163314610263576040805162461bcd60e51b815260206004820152601d60248201527f44656e6965643a2053656e646572206e6f7420617574686f72697a6564000000604482015290519081900360640190fd5b600754600160a01b900460ff161561027a57600080fd5b6004546040516001600160a01b0390911690309061029790610501565b6001600160a01b03928316815291166020820152604080519182900301906000f0801580156102ca573d6000803e3d6000fd5b50600680546001600160a01b039283166001600160a01b031991821617918290556007805460ff60a01b199216929093169190911716600160a01b179055565b6005546001600160a01b031633146103535760405162461bcd60e51b8152600401808060200182810382526040815260200180610b3a6040913960400191505060405180910390fd5b600580546001600160a01b0319166001600160a01b0392909216919091179055565b600181565b6006546001600160a01b031681565b60005460881b81565b60035460881b81565b6007546001600160a01b031681565b600754600160a81b900460ff1681565b6004546001600160a01b031681565b6005546001600160a01b031633146104125760405162461bcd60e51b8152600401808060200182810382526040815260200180610b3a6040913960400191505060405180910390fd5b60025482111561043c576007805460ff60a81b1916600160a81b1790556002548203600155610453565b6007805460ff60a81b191690556002548290036001555b6002829055600380546effffffffffffffffffffffffffffff1916608883901c17905560075460015460408051600160a81b90930460ff1683526001600160881b0319841660208401528281019190915260608201849052426080830152517ffada37d4ac0534ba650b737ff2bdcec500f4a5dcaa3bb41a62e2c20cc0637e569160a0908290030190a15050565b60015481565b60025481565b600081565b6005546001600160a01b031681565b61062b8061050f8339019056fe608060405234801561001057600080fd5b5060405161062b38038061062b8339818101604052604081101561003357600080fd5b508051602090910151600080546001600160a01b039384166001600160a01b031991821617909155600180549390921692169190911790556105b18061007a6000396000f3fe608060405234801561001057600080fd5b50600436106100575760003560e01c80630ac1c3131461005c57806318e0747b146100d95780634e89f8b5146102085780638da5cb5b1461022c578063b875ab2a14610234575b600080fd5b61006461023c565b6040805160208082528351818301528351919283929083019185019080838360005b8381101561009e578181015183820152602001610086565b50505050905090810190601f1680156100cb5780820380516001836020036101000a031916815260200191505b509250505060405180910390f35b610206600480360360408110156100ef57600080fd5b81019060208101813564010000000081111561010a57600080fd5b82018360208201111561011c57600080fd5b8035906020019184600183028401116401000000008311171561013e57600080fd5b91908080601f016020809104026020016040519081016040528093929190818152602001838380828437600092019190915250929594936020810193503591505064010000000081111561019157600080fd5b8201836020820111156101a357600080fd5b803590602001918460018302840111640100000000831117156101c557600080fd5b91908080601f0160208091040260200160405190810160405280939291908181526020018383808284376000920191909152509295506102ca945050505050565b005b610210610472565b604080516001600160a01b039092168252519081900360200190f35b610210610481565b610064610490565b6003805460408051602060026001851615610100026000190190941693909304601f810184900484028201840190925281815292918301828280156102c25780601f10610297576101008083540402835291602001916102c2565b820191906000526020600020905b8154815290600101906020018083116102a557829003601f168201915b505050505081565b6000546001600160a01b03163314610329576040805162461bcd60e51b815260206004820152601d60248201527f44656e6965643a2053656e646572206e6f7420617574686f72697a6564000000604482015290519081900360640190fd5b815161033c9060029060208501906104e8565b5080516103509060039060208401906104e8565b507fe9545c4fc14d7c070f8d00511eaaaea128921ae0e10675ef23b210c4f1b0735e81600242604051808060200180602001848152602001838103835286818151815260200191508051906020019080838360005b838110156103bd5781810151838201526020016103a5565b50505050905090810190601f1680156103ea5780820380516001836020036101000a031916815260200191505b5083810382528554600260001961010060018416150201909116048082526020909101908690801561045d5780601f106104325761010080835404028352916020019161045d565b820191906000526020600020905b81548152906001019060200180831161044057829003601f168201915b50509550505050505060405180910390a15050565b6001546001600160a01b031681565b6000546001600160a01b031681565b6002805460408051602060018416156101000260001901909316849004601f810184900484028201840190925281815292918301828280156102c25780601f10610297576101008083540402835291602001916102c2565b828054600181600116156101000203166002900490600052602060002090601f016020900481019282601f1061052957805160ff1916838001178555610556565b82800160010185558215610556579182015b8281111561055657825182559160200191906001019061053b565b50610562929150610566565b5090565b5b80821115610562576000815560010161056756fea26469706673582212208091eefe8ccd3248ca1de1208cd5dd0a0e30bf33bd1b98af7ee3cfa9a7d8b62d64736f6c634300070100334163636573732064656e6965643a204f6e6c79207468652062616e6b206f7261636c652063616e20657865637574652074686973207472616e73616374696f6ea2646970667358221220e716b0a77bb078abdfc80cec0944a2a3fb07dde41cb1ae43df3adf382ee68c5164736f6c63430007010033",
    "sourcePath": "/home/oyama/YIC Blockchain project/contracts/Account.sol",
    "compiler": {
        "name": "solc",
        "version": "0.7.1+commit.f4a555be"
    },
    "functionHashes": {
        "PAID()": "d31a03c2",
        "RECEIVED()": "2ba89ea9",
        "accountBalance()": "b0a1c1c4",
        "amount()": "aa8c217c",
        "bankAccount()": "377a0f53",
        "bankOracle()": "e8964535",
        "bankUpdate(uint256,bytes15)": "a31af2c6",
        "createTransactionStore()": "005b9bf9",
        "owner()": "8da5cb5b",
        "receiverSenderBankAccount()": "62c31f4f",
        "transStore()": "33439c9f",
        "transactionStoreAddress()": "7339bedc",
        "transactionType()": "7cd47d93",
        "updateOracle(address)": "1cb44dfc"
    },
    "gasEstimates": {
        "creation": {
            "codeDepositCost": "598200",
            "executionCost": "infinite",
            "totalCost": "infinite"
        },
        "external": {
            "PAID()": "273",
            "RECEIVED()": "275",
            "accountBalance()": "1042",
            "amount()": "1020",
            "bankAccount()": "1073",
            "bankOracle()": "1125",
            "bankUpdate(uint256,bytes15)": "infinite",
            "createTransactionStore()": "infinite",
            "owner()": "1082",
            "receiverSenderBankAccount()": "1095",
            "transStore()": "1060",
            "transactionStoreAddress()": "1126",
            "transactionType()": "1053",
            "updateOracle(address)": "infinite"
        }
    }
}