{
    "contractName": "Account",
    "abi": [
        {
            "inputs": [
                {
                    "internalType": "bytes15",
                    "name": "_bankAccount",
                    "type": "bytes15"
                }
            ],
            "stateMutability": "nonpayable",
            "type": "constructor"
        },
        {
            "inputs": [],
            "name": "amount",
            "outputs": [
                {
                    "internalType": "uint256",
                    "name": "",
                    "type": "uint256"
                }
            ],
            "stateMutability": "view",
            "type": "function"
        },
        {
            "inputs": [],
            "name": "bankAccount",
            "outputs": [
                {
                    "internalType": "bytes15",
                    "name": "",
                    "type": "bytes15"
                }
            ],
            "stateMutability": "view",
            "type": "function"
        },
        {
            "inputs": [],
            "name": "bankOracle",
            "outputs": [
                {
                    "internalType": "address",
                    "name": "",
                    "type": "address"
                }
            ],
            "stateMutability": "view",
            "type": "function"
        },
        {
            "inputs": [],
            "name": "getReason",
            "outputs": [
                {
                    "internalType": "string",
                    "name": "",
                    "type": "string"
                }
            ],
            "stateMutability": "view",
            "type": "function"
        },
        {
            "inputs": [],
            "name": "getReceiverSenderBankAccount",
            "outputs": [
                {
                    "internalType": "bytes15",
                    "name": "",
                    "type": "bytes15"
                }
            ],
            "stateMutability": "view",
            "type": "function"
        },
        {
            "inputs": [],
            "name": "owner",
            "outputs": [
                {
                    "internalType": "address",
                    "name": "",
                    "type": "address"
                }
            ],
            "stateMutability": "view",
            "type": "function"
        },
        {
            "inputs": [],
            "name": "receiverSenderBankAccount",
            "outputs": [
                {
                    "internalType": "bytes15",
                    "name": "",
                    "type": "bytes15"
                }
            ],
            "stateMutability": "view",
            "type": "function"
        },
        {
            "inputs": [
                {
                    "internalType": "uint256",
                    "name": "_amount",
                    "type": "uint256"
                }
            ],
            "name": "setBalance",
            "outputs": [],
            "stateMutability": "nonpayable",
            "type": "function"
        },
        {
            "inputs": [
                {
                    "internalType": "string",
                    "name": "_transactionrReason",
                    "type": "string"
                },
                {
                    "internalType": "string",
                    "name": "_transactionHash",
                    "type": "string"
                }
            ],
            "name": "setReason",
            "outputs": [],
            "stateMutability": "nonpayable",
            "type": "function"
        },
        {
            "inputs": [
                {
                    "internalType": "bytes15",
                    "name": "_receiverSenderBankAccount",
                    "type": "bytes15"
                }
            ],
            "name": "setReceiverSenderBankAccount",
            "outputs": [],
            "stateMutability": "nonpayable",
            "type": "function"
        },
        {
            "inputs": [],
            "name": "transactionHash",
            "outputs": [
                {
                    "internalType": "string",
                    "name": "",
                    "type": "string"
                }
            ],
            "stateMutability": "view",
            "type": "function"
        },
        {
            "inputs": [],
            "name": "transactionReason",
            "outputs": [
                {
                    "internalType": "string",
                    "name": "",
                    "type": "string"
                }
            ],
            "stateMutability": "view",
            "type": "function"
        }
    ],
    "bytecode": "608060405234801561001057600080fd5b506040516108033803806108038339818101604052602081101561003357600080fd5b5051600080546001600160781b03191660889290921c91909117815560058054336001600160a01b0319918216811790925560068054909116909117905561078290819061008190396000f3fe608060405234801561001057600080fd5b50600436106100b45760003560e01c8063aa8c217c11610071578063aa8c217c146102be578063b875ab2a146102d8578063cc099e7b146102e0578063d8284f6314610307578063e89645351461030f578063fb1669ca14610317576100b4565b80630ac1c313146100b957806318e0747b14610136578063377a0f531461026557806362c31f4f1461028a5780637d25e39d146102925780638da5cb5b1461029a575b600080fd5b6100c1610334565b6040805160208082528351818301528351919283929083019185019080838360005b838110156100fb5781810151838201526020016100e3565b50505050905090810190601f1680156101285780820380516001836020036101000a031916815260200191505b509250505060405180910390f35b6102636004803603604081101561014c57600080fd5b81019060208101813564010000000081111561016757600080fd5b82018360208201111561017957600080fd5b8035906020019184600183028401116401000000008311171561019b57600080fd5b91908080601f01602080910402602001604051908101604052809392919081815260200183838082843760009201919091525092959493602081019350359150506401000000008111156101ee57600080fd5b82018360208201111561020057600080fd5b8035906020019184600183028401116401000000008311171561022257600080fd5b91908080601f0160208091040260200160405190810160405280939291908181526020018383808284376000920191909152509295506103c2945050505050565b005b61026d61044d565b604080516001600160881b03199092168252519081900360200190f35b61026d610456565b6100c161045f565b6102a26104f5565b604080516001600160a01b039092168252519081900360200190f35b6102c6610504565b60408051918252519081900360200190f35b6100c161050a565b610263600480360360208110156102f657600080fd5b50356001600160881b031916610565565b61026d6105d2565b6102a26105db565b6102636004803603602081101561032d57600080fd5b50356105ea565b6004805460408051602060026001851615610100026000190190941693909304601f810184900484028201840190925281815292918301828280156103ba5780601f1061038f576101008083540402835291602001916103ba565b820191906000526020600020905b81548152906001019060200180831161039d57829003601f168201915b505050505081565b6005546001600160a01b03163314610421576040805162461bcd60e51b815260206004820152601d60248201527f44656e6965643a2053656e646572206e6f7420617574686f72697a6564000000604482015290519081900360640190fd5b8151610434906003906020850190610679565b508051610448906004906020840190610679565b505050565b60005460881b81565b60025460881b81565b60038054604080516020601f60026000196101006001881615020190951694909404938401819004810282018101909252828152606093909290918301828280156104eb5780601f106104c0576101008083540402835291602001916104eb565b820191906000526020600020905b8154815290600101906020018083116104ce57829003601f168201915b5050505050905090565b6005546001600160a01b031681565b60015481565b6003805460408051602060026001851615610100026000190190941693909304601f810184900484028201840190925281815292918301828280156103ba5780601f1061038f576101008083540402835291602001916103ba565b6006546001600160a01b031633146105ae5760405162461bcd60e51b815260040180806020018281038252604081526020018061070d6040913960400191505060405180910390fd5b600280546effffffffffffffffffffffffffffff191660889290921c919091179055565b60025460881b90565b6006546001600160a01b031681565b6006546001600160a01b031633146106335760405162461bcd60e51b815260040180806020018281038252604081526020018061070d6040913960400191505060405180910390fd5b600181905560408051602081019182905260009081905261065691600391610679565b5060408051602081019182905260009081905261067591600491610679565b5050565b828054600181600116156101000203166002900490600052602060002090601f016020900481019282601f106106ba57805160ff19168380011785556106e7565b828001600101855582156106e7579182015b828111156106e75782518255916020019190600101906106cc565b506106f39291506106f7565b5090565b5b808211156106f357600081556001016106f856fe4163636573732064656e6965643a204f6e6c79207468652062616e6b206f7261636c652063616e20657865637574652074686973207472616e73616374696f6ea26469706673582212207e171624108b6f288a1166c1041de4330b7125e6e4b5c330e1a2186e05481e5064736f6c63430007010033",
    "sourcePath": "/home/oyama/YIC Blockchain project/contracts/Account.sol",
    "compiler": {
        "name": "solc",
        "version": "0.7.1+commit.f4a555be"
    },
    "functionHashes": {
        "amount()": "aa8c217c",
        "bankAccount()": "377a0f53",
        "bankOracle()": "e8964535",
        "getReason()": "7d25e39d",
        "getReceiverSenderBankAccount()": "d8284f63",
        "owner()": "8da5cb5b",
        "receiverSenderBankAccount()": "62c31f4f",
        "setBalance(uint256)": "fb1669ca",
        "setReason(string,string)": "18e0747b",
        "setReceiverSenderBankAccount(bytes15)": "cc099e7b",
        "transactionHash()": "0ac1c313",
        "transactionReason()": "b875ab2a"
    },
    "gasEstimates": {
        "creation": {
            "codeDepositCost": "384400",
            "executionCost": "infinite",
            "totalCost": "infinite"
        },
        "external": {
            "amount()": "998",
            "bankAccount()": "1073",
            "bankOracle()": "1125",
            "getReason()": "infinite",
            "getReceiverSenderBankAccount()": "1094",
            "owner()": "1148",
            "receiverSenderBankAccount()": "1095",
            "setBalance(uint256)": "infinite",
            "setReason(string,string)": "infinite",
            "setReceiverSenderBankAccount(bytes15)": "infinite",
            "transactionHash()": "infinite",
            "transactionReason()": "infinite"
        }
    }
}