{
    "contractName": "Account",
    "abi": [
        {
            "inputs": [
                {
                    "internalType": "bytes15",
                    "name": "_bankAccount",
                    "type": "bytes15"
                }
            ],
            "stateMutability": "nonpayable",
            "type": "constructor"
        },
        {
            "inputs": [],
            "name": "amount",
            "outputs": [
                {
                    "internalType": "uint256",
                    "name": "",
                    "type": "uint256"
                }
            ],
            "stateMutability": "view",
            "type": "function"
        },
        {
            "inputs": [],
            "name": "bankAccount",
            "outputs": [
                {
                    "internalType": "bytes15",
                    "name": "",
                    "type": "bytes15"
                }
            ],
            "stateMutability": "view",
            "type": "function"
        },
        {
            "inputs": [],
            "name": "getBalance",
            "outputs": [
                {
                    "internalType": "uint256",
                    "name": "",
                    "type": "uint256"
                }
            ],
            "stateMutability": "view",
            "type": "function"
        },
        {
            "inputs": [],
            "name": "getBankAccount",
            "outputs": [
                {
                    "internalType": "bytes32",
                    "name": "",
                    "type": "bytes32"
                }
            ],
            "stateMutability": "view",
            "type": "function"
        },
        {
            "inputs": [],
            "name": "getReason",
            "outputs": [
                {
                    "internalType": "string",
                    "name": "",
                    "type": "string"
                }
            ],
            "stateMutability": "view",
            "type": "function"
        },
        {
            "inputs": [],
            "name": "getReceiverSenderBankAccount",
            "outputs": [
                {
                    "internalType": "bytes15",
                    "name": "",
                    "type": "bytes15"
                }
            ],
            "stateMutability": "view",
            "type": "function"
        },
        {
            "inputs": [],
            "name": "owner",
            "outputs": [
                {
                    "internalType": "address",
                    "name": "",
                    "type": "address"
                }
            ],
            "stateMutability": "view",
            "type": "function"
        },
        {
            "inputs": [],
            "name": "receiverSenderBankAccount",
            "outputs": [
                {
                    "internalType": "bytes15",
                    "name": "",
                    "type": "bytes15"
                }
            ],
            "stateMutability": "view",
            "type": "function"
        },
        {
            "inputs": [
                {
                    "internalType": "uint256",
                    "name": "_amount",
                    "type": "uint256"
                }
            ],
            "name": "setBalance",
            "outputs": [],
            "stateMutability": "nonpayable",
            "type": "function"
        },
        {
            "inputs": [
                {
                    "internalType": "string",
                    "name": "_transactionrReason",
                    "type": "string"
                },
                {
                    "internalType": "string",
                    "name": "_transactionHash",
                    "type": "string"
                }
            ],
            "name": "setReason",
            "outputs": [],
            "stateMutability": "nonpayable",
            "type": "function"
        },
        {
            "inputs": [
                {
                    "internalType": "bytes15",
                    "name": "_receiverSenderBankAccount",
                    "type": "bytes15"
                }
            ],
            "name": "setReceiverSenderBankAccount",
            "outputs": [],
            "stateMutability": "nonpayable",
            "type": "function"
        },
        {
            "inputs": [],
            "name": "transactionHash",
            "outputs": [
                {
                    "internalType": "string",
                    "name": "",
                    "type": "string"
                }
            ],
            "stateMutability": "view",
            "type": "function"
        },
        {
            "inputs": [],
            "name": "transactionReason",
            "outputs": [
                {
                    "internalType": "string",
                    "name": "",
                    "type": "string"
                }
            ],
            "stateMutability": "view",
            "type": "function"
        }
    ],
    "bytecode": "608060405234801561001057600080fd5b5060405161069d38038061069d8339818101604052602081101561003357600080fd5b50516000805460889290921c6001600160781b031990921691909117905561063d806100606000396000f3fe608060405234801561001057600080fd5b50600436106100cf5760003560e01c80637d25e39d1161008c578063b875ab2a11610066578063b875ab2a14610303578063cc099e7b1461030b578063d8284f6314610332578063fb1669ca1461033a576100cf565b80637d25e39d146102cf5780638da5cb5b146102d7578063aa8c217c146102fb576100cf565b80630ac1c313146100d457806312065fe01461015157806318e0747b1461016b57806319e4540b1461029a578063377a0f53146102a257806362c31f4f146102c7575b600080fd5b6100dc610357565b6040805160208082528351818301528351919283929083019185019080838360005b838110156101165781810151838201526020016100fe565b50505050905090810190601f1680156101435780820380516001836020036101000a031916815260200191505b509250505060405180910390f35b6101596103e5565b60408051918252519081900360200190f35b6102986004803603604081101561018157600080fd5b81019060208101813564010000000081111561019c57600080fd5b8201836020820111156101ae57600080fd5b803590602001918460018302840111640100000000831117156101d057600080fd5b91908080601f016020809104026020016040519081016040528093929190818152602001838380828437600092019190915250929594936020810193503591505064010000000081111561022357600080fd5b82018360208201111561023557600080fd5b8035906020019184600183028401116401000000008311171561025757600080fd5b91908080601f0160208091040260200160405190810160405280939291908181526020018383808284376000920191909152509295506103eb945050505050565b005b610159610417565b6102aa61042a565b604080516001600160881b03199092168252519081900360200190f35b6102aa610433565b6100dc61043c565b6102df6104d2565b604080516001600160a01b039092168252519081900360200190f35b6101596104e1565b6100dc6104e7565b6102986004803603602081101561032157600080fd5b50356001600160881b031916610542565b6102aa610566565b6102986004803603602081101561035057600080fd5b503561056f565b6004805460408051602060026001851615610100026000190190941693909304601f810184900484028201840190925281815292918301828280156103dd5780601f106103b2576101008083540402835291602001916103dd565b820191906000526020600020905b8154815290600101906020018083116103c057829003601f168201915b505050505081565b60015490565b81516103fe906003906020850190610574565b508051610412906004906020840190610574565b505050565b60005460881b6001600160881b03191690565b60005460881b81565b60025460881b81565b60038054604080516020601f60026000196101006001881615020190951694909404938401819004810282018101909252828152606093909290918301828280156104c85780601f1061049d576101008083540402835291602001916104c8565b820191906000526020600020905b8154815290600101906020018083116104ab57829003601f168201915b5050505050905090565b6005546001600160a01b031681565b60015481565b6003805460408051602060026001851615610100026000190190941693909304601f810184900484028201840190925281815292918301828280156103dd5780601f106103b2576101008083540402835291602001916103dd565b600280546effffffffffffffffffffffffffffff191660889290921c919091179055565b60025460881b90565b600155565b828054600181600116156101000203166002900490600052602060002090601f016020900481019282601f106105b557805160ff19168380011785556105e2565b828001600101855582156105e2579182015b828111156105e25782518255916020019190600101906105c7565b506105ee9291506105f2565b5090565b5b808211156105ee57600081556001016105f356fea2646970667358221220d8de47f02f8eefab6cacbb2fae696240bc391259440ef7647e8fcea0ddf6922364736f6c63430007010033",
    "sourcePath": "/home/oyama/YIC Blockchain project/contracts/Account.sol",
    "compiler": {
        "name": "solc",
        "version": "0.7.1+commit.f4a555be"
    },
    "functionHashes": {
        "amount()": "aa8c217c",
        "bankAccount()": "377a0f53",
        "getBalance()": "12065fe0",
        "getBankAccount()": "19e4540b",
        "getReason()": "7d25e39d",
        "getReceiverSenderBankAccount()": "d8284f63",
        "owner()": "8da5cb5b",
        "receiverSenderBankAccount()": "62c31f4f",
        "setBalance(uint256)": "fb1669ca",
        "setReason(string,string)": "18e0747b",
        "setReceiverSenderBankAccount(bytes15)": "cc099e7b",
        "transactionHash()": "0ac1c313",
        "transactionReason()": "b875ab2a"
    },
    "gasEstimates": {
        "creation": {
            "codeDepositCost": "319400",
            "executionCost": "infinite",
            "totalCost": "infinite"
        },
        "external": {
            "amount()": "1065",
            "bankAccount()": "1117",
            "getBalance()": "1021",
            "getBankAccount()": "1092",
            "getReason()": "infinite",
            "getReceiverSenderBankAccount()": "1094",
            "owner()": "1082",
            "receiverSenderBankAccount()": "1139",
            "setBalance(uint256)": "20277",
            "setReason(string,string)": "infinite",
            "setReceiverSenderBankAccount(bytes15)": "21096",
            "transactionHash()": "infinite",
            "transactionReason()": "infinite"
        }
    }
}