{
    "contractName": "Account",
    "abi": [
        {
            "inputs": [
                {
                    "internalType": "bytes15",
                    "name": "_bankAccount",
                    "type": "bytes15"
                }
            ],
            "stateMutability": "nonpayable",
            "type": "constructor"
        },
        {
            "inputs": [],
            "name": "getBalance",
            "outputs": [
                {
                    "internalType": "uint256",
                    "name": "",
                    "type": "uint256"
                }
            ],
            "stateMutability": "view",
            "type": "function"
        },
        {
            "inputs": [],
            "name": "getBankAccount",
            "outputs": [
                {
                    "internalType": "bytes32",
                    "name": "",
                    "type": "bytes32"
                }
            ],
            "stateMutability": "view",
            "type": "function"
        },
        {
            "inputs": [],
            "name": "getReason",
            "outputs": [
                {
                    "internalType": "string",
                    "name": "",
                    "type": "string"
                }
            ],
            "stateMutability": "view",
            "type": "function"
        },
        {
            "inputs": [],
            "name": "getReceiverSenderBankAccount",
            "outputs": [
                {
                    "internalType": "bytes15",
                    "name": "",
                    "type": "bytes15"
                }
            ],
            "stateMutability": "view",
            "type": "function"
        },
        {
            "inputs": [
                {
                    "internalType": "uint256",
                    "name": "_amount",
                    "type": "uint256"
                }
            ],
            "name": "setBalance",
            "outputs": [],
            "stateMutability": "nonpayable",
            "type": "function"
        },
        {
            "inputs": [
                {
                    "internalType": "string",
                    "name": "_transactionrReason",
                    "type": "string"
                },
                {
                    "internalType": "string",
                    "name": "_transactionHash",
                    "type": "string"
                }
            ],
            "name": "setReason",
            "outputs": [],
            "stateMutability": "nonpayable",
            "type": "function"
        },
        {
            "inputs": [
                {
                    "internalType": "bytes15",
                    "name": "_receiverSenderBankAccount",
                    "type": "bytes15"
                }
            ],
            "name": "setReceiverSenderBankAccount",
            "outputs": [],
            "stateMutability": "nonpayable",
            "type": "function"
        }
    ],
    "bytecode": "608060405234801561001057600080fd5b506040516104ef3803806104ef8339818101604052602081101561003357600080fd5b50516000805460889290921c6001600160781b031990921691909117905561048f806100606000396000f3fe608060405234801561001057600080fd5b506004361061007d5760003560e01c80637d25e39d1161005b5780637d25e39d146101d3578063cc099e7b14610250578063d8284f6314610277578063fb1669ca1461029c5761007d565b806312065fe01461008257806318e0747b1461009c57806319e4540b146101cb575b600080fd5b61008a6102b9565b60408051918252519081900360200190f35b6101c9600480360360408110156100b257600080fd5b8101906020810181356401000000008111156100cd57600080fd5b8201836020820111156100df57600080fd5b8035906020019184600183028401116401000000008311171561010157600080fd5b91908080601f016020809104026020016040519081016040528093929190818152602001838380828437600092019190915250929594936020810193503591505064010000000081111561015457600080fd5b82018360208201111561016657600080fd5b8035906020019184600183028401116401000000008311171561018857600080fd5b91908080601f0160208091040260200160405190810160405280939291908181526020018383808284376000920191909152509295506102bf945050505050565b005b61008a6102eb565b6101db6102fe565b6040805160208082528351818301528351919283929083019185019080838360005b838110156102155781810151838201526020016101fd565b50505050905090810190601f1680156102425780820380516001836020036101000a031916815260200191505b509250505060405180910390f35b6101c96004803603602081101561026657600080fd5b50356001600160881b031916610394565b61027f6103b8565b604080516001600160881b03199092168252519081900360200190f35b6101c9600480360360208110156102b257600080fd5b50356103c1565b60015490565b81516102d29060039060208501906103c6565b5080516102e69060049060208401906103c6565b505050565b60005460881b6001600160881b03191690565b60038054604080516020601f600260001961010060018816150201909516949094049384018190048102820181019092528281526060939092909183018282801561038a5780601f1061035f5761010080835404028352916020019161038a565b820191906000526020600020905b81548152906001019060200180831161036d57829003601f168201915b5050505050905090565b600280546effffffffffffffffffffffffffffff191660889290921c919091179055565b60025460881b90565b600155565b828054600181600116156101000203166002900490600052602060002090601f016020900481019282601f1061040757805160ff1916838001178555610434565b82800160010185558215610434579182015b82811115610434578251825591602001919060010190610419565b50610440929150610444565b5090565b5b80821115610440576000815560010161044556fea2646970667358221220d6ec5bb47a2a5eb8d94fad1f36ad1af7f2dd11f528823e46bb5651e7b3f2aa8a64736f6c63430007010033",
    "sourcePath": "/home/oyama/YIC Blockchain project/contracts/Account.sol",
    "compiler": {
        "name": "solc",
        "version": "0.7.1+commit.f4a555be"
    },
    "functionHashes": {
        "getBalance()": "12065fe0",
        "getBankAccount()": "19e4540b",
        "getReason()": "7d25e39d",
        "getReceiverSenderBankAccount()": "d8284f63",
        "setBalance(uint256)": "fb1669ca",
        "setReason(string,string)": "18e0747b",
        "setReceiverSenderBankAccount(bytes15)": "cc099e7b"
    },
    "gasEstimates": {
        "creation": {
            "codeDepositCost": "233400",
            "executionCost": "infinite",
            "totalCost": "infinite"
        },
        "external": {
            "getBalance()": "999",
            "getBankAccount()": "1070",
            "getReason()": "infinite",
            "getReceiverSenderBankAccount()": "1072",
            "setBalance(uint256)": "20255",
            "setReason(string,string)": "infinite",
            "setReceiverSenderBankAccount(bytes15)": "21074"
        }
    }
}