{
    "contractName": "TransactionStore",
    "abi": [
        {
            "inputs": [
                {
                    "internalType": "address",
                    "name": "_owner",
                    "type": "address"
                },
                {
                    "internalType": "address",
                    "name": "_parentAccount",
                    "type": "address"
                }
            ],
            "stateMutability": "nonpayable",
            "type": "constructor"
        },
        {
            "inputs": [],
            "name": "owner",
            "outputs": [
                {
                    "internalType": "address",
                    "name": "",
                    "type": "address"
                }
            ],
            "stateMutability": "view",
            "type": "function"
        },
        {
            "inputs": [],
            "name": "parentAccount",
            "outputs": [
                {
                    "internalType": "address",
                    "name": "",
                    "type": "address"
                }
            ],
            "stateMutability": "view",
            "type": "function"
        },
        {
            "inputs": [
                {
                    "internalType": "string",
                    "name": "_transactionrReason",
                    "type": "string"
                },
                {
                    "internalType": "string",
                    "name": "_transactionHash",
                    "type": "string"
                }
            ],
            "name": "setReason",
            "outputs": [],
            "stateMutability": "nonpayable",
            "type": "function"
        },
        {
            "inputs": [],
            "name": "transactionHash",
            "outputs": [
                {
                    "internalType": "string",
                    "name": "",
                    "type": "string"
                }
            ],
            "stateMutability": "view",
            "type": "function"
        },
        {
            "inputs": [],
            "name": "transactionReason",
            "outputs": [
                {
                    "internalType": "string",
                    "name": "",
                    "type": "string"
                }
            ],
            "stateMutability": "view",
            "type": "function"
        }
    ],
    "bytecode": "608060405234801561001057600080fd5b5060405161050e38038061050e8339818101604052604081101561003357600080fd5b508051602090910151600080546001600160a01b039384166001600160a01b031991821617909155600180549390921692169190911790556104948061007a6000396000f3fe608060405234801561001057600080fd5b50600436106100575760003560e01c80630ac1c3131461005c57806318e0747b146100d95780634e89f8b5146102085780638da5cb5b1461022c578063b875ab2a14610234575b600080fd5b61006461023c565b6040805160208082528351818301528351919283929083019185019080838360005b8381101561009e578181015183820152602001610086565b50505050905090810190601f1680156100cb5780820380516001836020036101000a031916815260200191505b509250505060405180910390f35b610206600480360360408110156100ef57600080fd5b81019060208101813564010000000081111561010a57600080fd5b82018360208201111561011c57600080fd5b8035906020019184600183028401116401000000008311171561013e57600080fd5b91908080601f016020809104026020016040519081016040528093929190818152602001838380828437600092019190915250929594936020810193503591505064010000000081111561019157600080fd5b8201836020820111156101a357600080fd5b803590602001918460018302840111640100000000831117156101c557600080fd5b91908080601f0160208091040260200160405190810160405280939291908181526020018383808284376000920191909152509295506102ca945050505050565b005b610210610355565b604080516001600160a01b039092168252519081900360200190f35b610210610364565b610064610373565b6003805460408051602060026001851615610100026000190190941693909304601f810184900484028201840190925281815292918301828280156102c25780601f10610297576101008083540402835291602001916102c2565b820191906000526020600020905b8154815290600101906020018083116102a557829003601f168201915b505050505081565b6000546001600160a01b03163314610329576040805162461bcd60e51b815260206004820152601d60248201527f44656e6965643a2053656e646572206e6f7420617574686f72697a6564000000604482015290519081900360640190fd5b815161033c9060029060208501906103cb565b5080516103509060039060208401906103cb565b505050565b6001546001600160a01b031681565b6000546001600160a01b031681565b6002805460408051602060018416156101000260001901909316849004601f810184900484028201840190925281815292918301828280156102c25780601f10610297576101008083540402835291602001916102c2565b828054600181600116156101000203166002900490600052602060002090601f016020900481019282601f1061040c57805160ff1916838001178555610439565b82800160010185558215610439579182015b8281111561043957825182559160200191906001019061041e565b50610445929150610449565b5090565b5b80821115610445576000815560010161044a56fea26469706673582212209a8cf733ed89fa771c0ecd26f68481ae37fcea66bf8ce285b7cb35dae5a9a54564736f6c63430007010033",
    "sourcePath": "/home/oyama/YIC Blockchain project/contracts/TransactionStore.sol",
    "compiler": {
        "name": "solc",
        "version": "0.7.1+commit.f4a555be"
    },
    "functionHashes": {
        "owner()": "8da5cb5b",
        "parentAccount()": "4e89f8b5",
        "setReason(string,string)": "18e0747b",
        "transactionHash()": "0ac1c313",
        "transactionReason()": "b875ab2a"
    },
    "gasEstimates": {
        "creation": {
            "codeDepositCost": "234400",
            "executionCost": "infinite",
            "totalCost": "infinite"
        },
        "external": {
            "owner()": "1081",
            "parentAccount()": "1059",
            "setReason(string,string)": "infinite",
            "transactionHash()": "infinite",
            "transactionReason()": "infinite"
        }
    }
}