{
    "contractName": "TransactionStore",
    "abi": [
        {
            "inputs": [
                {
                    "internalType": "address",
                    "name": "_owner",
                    "type": "address"
                },
                {
                    "internalType": "address",
                    "name": "_parentAccount",
                    "type": "address"
                }
            ],
            "stateMutability": "nonpayable",
            "type": "constructor"
        },
        {
            "anonymous": false,
            "inputs": [
                {
                    "indexed": false,
                    "internalType": "string",
                    "name": "transacionHash",
                    "type": "string"
                },
                {
                    "indexed": false,
                    "internalType": "string",
                    "name": "transactionReason",
                    "type": "string"
                },
                {
                    "indexed": false,
                    "internalType": "uint256",
                    "name": "timestamp",
                    "type": "uint256"
                }
            ],
            "name": "Reason",
            "type": "event"
        },
        {
            "inputs": [],
            "name": "owner",
            "outputs": [
                {
                    "internalType": "address",
                    "name": "",
                    "type": "address"
                }
            ],
            "stateMutability": "view",
            "type": "function"
        },
        {
            "inputs": [],
            "name": "parentAccount",
            "outputs": [
                {
                    "internalType": "address",
                    "name": "",
                    "type": "address"
                }
            ],
            "stateMutability": "view",
            "type": "function"
        },
        {
            "inputs": [
                {
                    "internalType": "string",
                    "name": "_transactionrReason",
                    "type": "string"
                },
                {
                    "internalType": "string",
                    "name": "_transactionHash",
                    "type": "string"
                }
            ],
            "name": "setReason",
            "outputs": [],
            "stateMutability": "nonpayable",
            "type": "function"
        },
        {
            "inputs": [],
            "name": "transactionHash",
            "outputs": [
                {
                    "internalType": "string",
                    "name": "",
                    "type": "string"
                }
            ],
            "stateMutability": "view",
            "type": "function"
        },
        {
            "inputs": [],
            "name": "transactionReason",
            "outputs": [
                {
                    "internalType": "string",
                    "name": "",
                    "type": "string"
                }
            ],
            "stateMutability": "view",
            "type": "function"
        }
    ],
    "bytecode": "608060405234801561001057600080fd5b5060405161062b38038061062b8339818101604052604081101561003357600080fd5b508051602090910151600080546001600160a01b039384166001600160a01b031991821617909155600180549390921692169190911790556105b18061007a6000396000f3fe608060405234801561001057600080fd5b50600436106100575760003560e01c80630ac1c3131461005c57806318e0747b146100d95780634e89f8b5146102085780638da5cb5b1461022c578063b875ab2a14610234575b600080fd5b61006461023c565b6040805160208082528351818301528351919283929083019185019080838360005b8381101561009e578181015183820152602001610086565b50505050905090810190601f1680156100cb5780820380516001836020036101000a031916815260200191505b509250505060405180910390f35b610206600480360360408110156100ef57600080fd5b81019060208101813564010000000081111561010a57600080fd5b82018360208201111561011c57600080fd5b8035906020019184600183028401116401000000008311171561013e57600080fd5b91908080601f016020809104026020016040519081016040528093929190818152602001838380828437600092019190915250929594936020810193503591505064010000000081111561019157600080fd5b8201836020820111156101a357600080fd5b803590602001918460018302840111640100000000831117156101c557600080fd5b91908080601f0160208091040260200160405190810160405280939291908181526020018383808284376000920191909152509295506102ca945050505050565b005b610210610472565b604080516001600160a01b039092168252519081900360200190f35b610210610481565b610064610490565b6003805460408051602060026001851615610100026000190190941693909304601f810184900484028201840190925281815292918301828280156102c25780601f10610297576101008083540402835291602001916102c2565b820191906000526020600020905b8154815290600101906020018083116102a557829003601f168201915b505050505081565b6000546001600160a01b03163314610329576040805162461bcd60e51b815260206004820152601d60248201527f44656e6965643a2053656e646572206e6f7420617574686f72697a6564000000604482015290519081900360640190fd5b815161033c9060029060208501906104e8565b5080516103509060039060208401906104e8565b507fe9545c4fc14d7c070f8d00511eaaaea128921ae0e10675ef23b210c4f1b0735e81600242604051808060200180602001848152602001838103835286818151815260200191508051906020019080838360005b838110156103bd5781810151838201526020016103a5565b50505050905090810190601f1680156103ea5780820380516001836020036101000a031916815260200191505b5083810382528554600260001961010060018416150201909116048082526020909101908690801561045d5780601f106104325761010080835404028352916020019161045d565b820191906000526020600020905b81548152906001019060200180831161044057829003601f168201915b50509550505050505060405180910390a15050565b6001546001600160a01b031681565b6000546001600160a01b031681565b6002805460408051602060018416156101000260001901909316849004601f810184900484028201840190925281815292918301828280156102c25780601f10610297576101008083540402835291602001916102c2565b828054600181600116156101000203166002900490600052602060002090601f016020900481019282601f1061052957805160ff1916838001178555610556565b82800160010185558215610556579182015b8281111561055657825182559160200191906001019061053b565b50610562929150610566565b5090565b5b80821115610562576000815560010161056756fea26469706673582212208091eefe8ccd3248ca1de1208cd5dd0a0e30bf33bd1b98af7ee3cfa9a7d8b62d64736f6c63430007010033",
    "sourcePath": "/home/oyama/YIC Blockchain project/contracts/TransactionStore.sol",
    "compiler": {
        "name": "solc",
        "version": "0.7.1+commit.f4a555be"
    },
    "functionHashes": {
        "owner()": "8da5cb5b",
        "parentAccount()": "4e89f8b5",
        "setReason(string,string)": "18e0747b",
        "transactionHash()": "0ac1c313",
        "transactionReason()": "b875ab2a"
    },
    "gasEstimates": {
        "creation": {
            "codeDepositCost": "291400",
            "executionCost": "infinite",
            "totalCost": "infinite"
        },
        "external": {
            "owner()": "1081",
            "parentAccount()": "1059",
            "setReason(string,string)": "infinite",
            "transactionHash()": "infinite",
            "transactionReason()": "infinite"
        }
    }
}