{
    "contractName": "TransactionsStore",
    "abi": [
        {
            "inputs": [
                {
                    "internalType": "bytes15",
                    "name": "_bankAccount",
                    "type": "bytes15"
                },
                {
                    "internalType": "address",
                    "name": "_owner",
                    "type": "address"
                }
            ],
            "stateMutability": "nonpayable",
            "type": "constructor"
        },
        {
            "inputs": [],
            "name": "bankAccount",
            "outputs": [
                {
                    "internalType": "bytes15",
                    "name": "",
                    "type": "bytes15"
                }
            ],
            "stateMutability": "view",
            "type": "function"
        },
        {
            "inputs": [],
            "name": "getReason",
            "outputs": [
                {
                    "internalType": "string",
                    "name": "",
                    "type": "string"
                }
            ],
            "stateMutability": "view",
            "type": "function"
        },
        {
            "inputs": [],
            "name": "owner",
            "outputs": [
                {
                    "internalType": "address",
                    "name": "",
                    "type": "address"
                }
            ],
            "stateMutability": "view",
            "type": "function"
        },
        {
            "inputs": [
                {
                    "internalType": "string",
                    "name": "_transactionrReason",
                    "type": "string"
                },
                {
                    "internalType": "string",
                    "name": "_transactionHash",
                    "type": "string"
                }
            ],
            "name": "setReason",
            "outputs": [],
            "stateMutability": "nonpayable",
            "type": "function"
        },
        {
            "inputs": [],
            "name": "transactionHash",
            "outputs": [
                {
                    "internalType": "string",
                    "name": "",
                    "type": "string"
                }
            ],
            "stateMutability": "view",
            "type": "function"
        },
        {
            "inputs": [],
            "name": "transactionReason",
            "outputs": [
                {
                    "internalType": "string",
                    "name": "",
                    "type": "string"
                }
            ],
            "stateMutability": "view",
            "type": "function"
        }
    ],
    "bytecode": "608060405234801561001057600080fd5b506040516105e03803806105e08339818101604052604081101561003357600080fd5b508051602090910151600080546001600160781b03191660889390931c929092178255600180546001600160a01b0319166001600160a01b0390921691909117905561055b90819061008590396000f3fe608060405234801561001057600080fd5b50600436106100625760003560e01c80630ac1c3131461006757806318e0747b146100e4578063377a0f53146102135780637d25e39d146102425780638da5cb5b1461024a578063b875ab2a1461026e575b600080fd5b61006f610276565b6040805160208082528351818301528351919283929083019185019080838360005b838110156100a9578181015183820152602001610091565b50505050905090810190601f1680156100d65780820380516001836020036101000a031916815260200191505b509250505060405180910390f35b610211600480360360408110156100fa57600080fd5b81019060208101813564010000000081111561011557600080fd5b82018360208201111561012757600080fd5b8035906020019184600183028401116401000000008311171561014957600080fd5b91908080601f016020809104026020016040519081016040528093929190818152602001838380828437600092019190915250929594936020810193503591505064010000000081111561019c57600080fd5b8201836020820111156101ae57600080fd5b803590602001918460018302840111640100000000831117156101d057600080fd5b91908080601f016020809104026020016040519081016040528093929190818152602001838380828437600092019190915250929550610304945050505050565b005b61021b61038f565b6040805170ffffffffffffffffffffffffffffffffff199092168252519081900360200190f35b61006f610398565b61025261042b565b604080516001600160a01b039092168252519081900360200190f35b61006f61043a565b6003805460408051602060026001851615610100026000190190941693909304601f810184900484028201840190925281815292918301828280156102fc5780601f106102d1576101008083540402835291602001916102fc565b820191906000526020600020905b8154815290600101906020018083116102df57829003601f168201915b505050505081565b6001546001600160a01b03163314610363576040805162461bcd60e51b815260206004820152601d60248201527f44656e6965643a2053656e646572206e6f7420617574686f72697a6564000000604482015290519081900360640190fd5b8151610376906002906020850190610492565b50805161038a906003906020840190610492565b505050565b60005460881b81565b60028054604080516020601f60001961010060018716150201909416859004938401819004810282018101909252828152606093909290918301828280156104215780601f106103f657610100808354040283529160200191610421565b820191906000526020600020905b81548152906001019060200180831161040457829003601f168201915b5050505050905090565b6001546001600160a01b031681565b6002805460408051602060018416156101000260001901909316849004601f810184900484028201840190925281815292918301828280156102fc5780601f106102d1576101008083540402835291602001916102fc565b828054600181600116156101000203166002900490600052602060002090601f016020900481019282601f106104d357805160ff1916838001178555610500565b82800160010185558215610500579182015b828111156105005782518255916020019190600101906104e5565b5061050c929150610510565b5090565b5b8082111561050c576000815560010161051156fea2646970667358221220475d73a0d7811e254f99c130a2423ed47b3e4f75b93511cb74aa58acffdf4c0564736f6c63430007010033",
    "sourcePath": "/home/oyama/YIC Blockchain project/contracts/TransactionStore.sol",
    "compiler": {
        "name": "solc",
        "version": "0.7.1+commit.f4a555be"
    },
    "functionHashes": {
        "bankAccount()": "377a0f53",
        "getReason()": "7d25e39d",
        "owner()": "8da5cb5b",
        "setReason(string,string)": "18e0747b",
        "transactionHash()": "0ac1c313",
        "transactionReason()": "b875ab2a"
    },
    "gasEstimates": {
        "creation": {
            "codeDepositCost": "274200",
            "executionCost": "infinite",
            "totalCost": "infinite"
        },
        "external": {
            "bankAccount()": "1038",
            "getReason()": "infinite",
            "owner()": "1103",
            "setReason(string,string)": "infinite",
            "transactionHash()": "infinite",
            "transactionReason()": "infinite"
        }
    }
}